{
  "_format": "hh-sol-artifact-1",
  "contractName": "ProductRatingSystem",
  "sourceName": "contracts/ProductRatingSystem.sol",
  "abi": [
    {
      "inputs": [],
      "stateMutability": "nonpayable",
      "type": "constructor"
    },
    {
      "anonymous": false,
      "inputs": [
        {
          "indexed": false,
          "internalType": "uint256",
          "name": "productId",
          "type": "uint256"
        },
        {
          "indexed": false,
          "internalType": "string",
          "name": "name",
          "type": "string"
        },
        {
          "indexed": false,
          "internalType": "string",
          "name": "description",
          "type": "string"
        },
        {
          "indexed": false,
          "internalType": "string",
          "name": "productUrl",
          "type": "string"
        }
      ],
      "name": "ProductAdded",
      "type": "event"
    },
    {
      "anonymous": false,
      "inputs": [
        {
          "indexed": false,
          "internalType": "uint256",
          "name": "productId",
          "type": "uint256"
        }
      ],
      "name": "ProductDeleted",
      "type": "event"
    },
    {
      "anonymous": false,
      "inputs": [
        {
          "indexed": false,
          "internalType": "uint256",
          "name": "productId",
          "type": "uint256"
        },
        {
          "indexed": false,
          "internalType": "address",
          "name": "reviewer",
          "type": "address"
        },
        {
          "indexed": false,
          "internalType": "string",
          "name": "ipfsContentHash",
          "type": "string"
        },
        {
          "indexed": false,
          "internalType": "uint8",
          "name": "rating",
          "type": "uint8"
        },
        {
          "indexed": false,
          "internalType": "string",
          "name": "oneWordReview",
          "type": "string"
        }
      ],
      "name": "ReviewAdded",
      "type": "event"
    },
    {
      "anonymous": false,
      "inputs": [
        {
          "indexed": false,
          "internalType": "uint256",
          "name": "productId",
          "type": "uint256"
        },
        {
          "indexed": false,
          "internalType": "address",
          "name": "reviewer",
          "type": "address"
        },
        {
          "indexed": false,
          "internalType": "uint256",
          "name": "reviewId",
          "type": "uint256"
        }
      ],
      "name": "ReviewDeleted",
      "type": "event"
    },
    {
      "inputs": [
        {
          "internalType": "string",
          "name": "name",
          "type": "string"
        },
        {
          "internalType": "string",
          "name": "description",
          "type": "string"
        },
        {
          "internalType": "string",
          "name": "productUrl",
          "type": "string"
        }
      ],
      "name": "addProduct",
      "outputs": [],
      "stateMutability": "nonpayable",
      "type": "function"
    },
    {
      "inputs": [
        {
          "internalType": "uint256",
          "name": "productId",
          "type": "uint256"
        },
        {
          "internalType": "string",
          "name": "ipfsContentHash",
          "type": "string"
        },
        {
          "internalType": "uint8",
          "name": "rating",
          "type": "uint8"
        },
        {
          "internalType": "string",
          "name": "oneWordReview",
          "type": "string"
        }
      ],
      "name": "addReview",
      "outputs": [],
      "stateMutability": "nonpayable",
      "type": "function"
    },
    {
      "inputs": [],
      "name": "admin",
      "outputs": [
        {
          "internalType": "address",
          "name": "",
          "type": "address"
        }
      ],
      "stateMutability": "view",
      "type": "function"
    },
    {
      "inputs": [
        {
          "internalType": "uint256",
          "name": "productId",
          "type": "uint256"
        }
      ],
      "name": "deleteProduct",
      "outputs": [],
      "stateMutability": "nonpayable",
      "type": "function"
    },
    {
      "inputs": [
        {
          "internalType": "uint256",
          "name": "productId",
          "type": "uint256"
        }
      ],
      "name": "deleteReview",
      "outputs": [],
      "stateMutability": "nonpayable",
      "type": "function"
    },
    {
      "inputs": [],
      "name": "getAllProducts",
      "outputs": [
        {
          "components": [
            {
              "internalType": "uint256",
              "name": "productId",
              "type": "uint256"
            },
            {
              "internalType": "string",
              "name": "name",
              "type": "string"
            },
            {
              "internalType": "string",
              "name": "description",
              "type": "string"
            },
            {
              "internalType": "uint8",
              "name": "rating",
              "type": "uint8"
            },
            {
              "internalType": "uint256",
              "name": "totalReviews",
              "type": "uint256"
            },
            {
              "internalType": "string",
              "name": "productUrl",
              "type": "string"
            }
          ],
          "internalType": "struct ProductRatingSystem.ProductDetails[]",
          "name": "",
          "type": "tuple[]"
        }
      ],
      "stateMutability": "view",
      "type": "function"
    },
    {
      "inputs": [
        {
          "internalType": "uint256",
          "name": "productId",
          "type": "uint256"
        }
      ],
      "name": "getAverageRating",
      "outputs": [
        {
          "internalType": "uint8",
          "name": "",
          "type": "uint8"
        }
      ],
      "stateMutability": "view",
      "type": "function"
    },
    {
      "inputs": [
        {
          "internalType": "uint256",
          "name": "productId",
          "type": "uint256"
        }
      ],
      "name": "getProductById",
      "outputs": [
        {
          "internalType": "string",
          "name": "name",
          "type": "string"
        },
        {
          "internalType": "string",
          "name": "description",
          "type": "string"
        },
        {
          "internalType": "uint256",
          "name": "totalReviews",
          "type": "uint256"
        },
        {
          "internalType": "string",
          "name": "productUrl",
          "type": "string"
        },
        {
          "internalType": "uint8",
          "name": "averageRating",
          "type": "uint8"
        }
      ],
      "stateMutability": "view",
      "type": "function"
    },
    {
      "inputs": [
        {
          "internalType": "uint256",
          "name": "productId",
          "type": "uint256"
        }
      ],
      "name": "getProductDetails",
      "outputs": [
        {
          "internalType": "string",
          "name": "",
          "type": "string"
        },
        {
          "internalType": "string",
          "name": "",
          "type": "string"
        },
        {
          "internalType": "uint256",
          "name": "",
          "type": "uint256"
        },
        {
          "internalType": "string",
          "name": "",
          "type": "string"
        },
        {
          "internalType": "uint8",
          "name": "",
          "type": "uint8"
        }
      ],
      "stateMutability": "view",
      "type": "function"
    },
    {
      "inputs": [
        {
          "internalType": "uint256",
          "name": "productId",
          "type": "uint256"
        }
      ],
      "name": "getProductReviews",
      "outputs": [
        {
          "components": [
            {
              "internalType": "address",
              "name": "reviewer",
              "type": "address"
            },
            {
              "internalType": "string",
              "name": "ipfsContentHash",
              "type": "string"
            },
            {
              "internalType": "uint8",
              "name": "rating",
              "type": "uint8"
            },
            {
              "internalType": "uint256",
              "name": "timestamp",
              "type": "uint256"
            },
            {
              "internalType": "string",
              "name": "oneWordReview",
              "type": "string"
            }
          ],
          "internalType": "struct ProductRatingSystem.Review[]",
          "name": "",
          "type": "tuple[]"
        }
      ],
      "stateMutability": "view",
      "type": "function"
    },
    {
      "inputs": [],
      "name": "getProductsCount",
      "outputs": [
        {
          "internalType": "uint256",
          "name": "",
          "type": "uint256"
        }
      ],
      "stateMutability": "view",
      "type": "function"
    },
    {
      "inputs": [],
      "name": "getRemainingTimeForReview",
      "outputs": [
        {
          "internalType": "uint256",
          "name": "",
          "type": "uint256"
        }
      ],
      "stateMutability": "view",
      "type": "function"
    },
    {
      "inputs": [],
      "name": "getReviewCoolDownTime",
      "outputs": [
        {
          "internalType": "uint256",
          "name": "",
          "type": "uint256"
        }
      ],
      "stateMutability": "view",
      "type": "function"
    },
    {
      "inputs": [
        {
          "internalType": "address",
          "name": "",
          "type": "address"
        }
      ],
      "name": "lastReviewTimestamp",
      "outputs": [
        {
          "internalType": "uint256",
          "name": "",
          "type": "uint256"
        }
      ],
      "stateMutability": "view",
      "type": "function"
    },
    {
      "inputs": [],
      "name": "reviewCooldownTime",
      "outputs": [
        {
          "internalType": "uint256",
          "name": "",
          "type": "uint256"
        }
      ],
      "stateMutability": "view",
      "type": "function"
    }
  ],
  "bytecode": "0x6080604052600a60045534801561001557600080fd5b50336000806101000a81548173ffffffffffffffffffffffffffffffffffffffff021916908373ffffffffffffffffffffffffffffffffffffffff160217905550612906806100656000396000f3fe608060405234801561001057600080fd5b50600436106100f55760003560e01c80635786fd4011610097578063dc86ba1b11610066578063dc86ba1b146102a2578063ed90c7b7146102be578063f851a440146102da578063f8d1f8e1146102f8576100f5565b80635786fd40146102165780636813b53b146102345780636f759e7114610268578063d71e489014610286576100f5565b806317b7e03e116100d357806317b7e03e146101525780632541f14d146101825780633f70c2b4146101b257806346a4237b146101e6576100f5565b806302ee3a52146100fa5780630e34b00e146101185780630fdf36b214610134575b600080fd5b610102610316565b60405161010f919061223f565b60405180910390f35b610132600480360381019061012d9190611bc7565b610602565b005b61013c610762565b60405161014991906123ab565b60405180910390f35b61016c60048036038101906101679190611c5e565b61076c565b60405161017991906124b8565b60405180910390f35b61019c60048036038101906101979190611b9e565b61088c565b6040516101a991906123ab565b60405180910390f35b6101cc60048036038101906101c79190611c5e565b6108a4565b6040516101dd959493929190612283565b60405180910390f35b61020060048036038101906101fb9190611c5e565b610ad1565b60405161020d9190612261565b60405180910390f35b61021e610d31565b60405161022b91906123ab565b60405180910390f35b61024e60048036038101906102499190611c5e565b610d3b565b60405161025f959493929190612283565b60405180910390f35b610270610f71565b60405161027d91906123ab565b60405180910390f35b6102a0600480360381019061029b9190611c5e565b610f77565b005b6102bc60048036038101906102b79190611c87565b6111b6565b005b6102d860048036038101906102d39190611c5e565b61158d565b005b6102e261189a565b6040516102ef9190612224565b60405180910390f35b6103006118be565b60405161030d91906123ab565b60405180910390f35b6060600060015467ffffffffffffffff81111561035c577f4e487b7100000000000000000000000000000000000000000000000000000000600052604160045260246000fd5b60405190808252806020026020018201604052801561039557816020015b61038261193d565b81526020019060019003908161037a5790505b50905060005b6001548110156105fa57600060026000838152602001908152602001600020905060006103c78361076c565b90506040518060c001604052808481526020018360000180546103e990612743565b80601f016020809104026020016040519081016040528092919081815260200182805461041590612743565b80156104625780601f1061043757610100808354040283529160200191610462565b820191906000526020600020905b81548152906001019060200180831161044557829003601f168201915b5050505050815260200183600101805461047b90612743565b80601f01602080910402602001604051908101604052809291908181526020018280546104a790612743565b80156104f45780601f106104c9576101008083540402835291602001916104f4565b820191906000526020600020905b8154815290600101906020018083116104d757829003601f168201915b505050505081526020018260ff1681526020018360020154815260200183600301805461052090612743565b80601f016020809104026020016040519081016040528092919081815260200182805461054c90612743565b80156105995780601f1061056e57610100808354040283529160200191610599565b820191906000526020600020905b81548152906001019060200180831161057c57829003601f168201915b50505050508152508484815181106105da577f4e487b7100000000000000000000000000000000000000000000000000000000600052603260045260246000fd5b6020026020010181905250505080806105f290612775565b91505061039b565b508091505090565b60008054906101000a900473ffffffffffffffffffffffffffffffffffffffff1673ffffffffffffffffffffffffffffffffffffffff163373ffffffffffffffffffffffffffffffffffffffff1614610690576040517f08c379a00000000000000000000000000000000000000000000000000000000081526004016106879061230b565b60405180910390fd5b600060026000600160008154809291906106a990612775565b9190505581526020019081526020016000209050838160000190805190602001906106d5929190611976565b50828160010190805190602001906106ee929190611976565b5081816003019080519060200190610707929190611976565b50600081600201819055507f2ad97e35e5231a127d0d7b6cd0aa552ec47d312eff0ef74961fb06c5ae92688460018054610741919061265a565b858585604051610754949392919061245e565b60405180910390a150505050565b6000600454905090565b600060015482106107b2576040517f08c379a00000000000000000000000000000000000000000000000000000000081526004016107a9906122eb565b60405180910390fd5b60006002600084815260200190815260200160002090506000816002015414156107e0576000915050610887565b6000805b82600401805490508110156108715782600401818154811061082f577f4e487b7100000000000000000000000000000000000000000000000000000000600052603260045260246000fd5b906000526020600020906005020160020160009054906101000a900460ff1660ff168261085c91906125d3565b9150808061086990612775565b9150506107e4565b508160020154816108829190612629565b925050505b919050565b60036020528060005260406000206000915090505481565b60608060006060600060015486106108f1576040517f08c379a00000000000000000000000000000000000000000000000000000000081526004016108e8906122eb565b60405180910390fd5b600060026000888152602001908152602001600020905080600001805461091790612743565b80601f016020809104026020016040519081016040528092919081815260200182805461094390612743565b80156109905780601f1061096557610100808354040283529160200191610990565b820191906000526020600020905b81548152906001019060200180831161097357829003601f168201915b505050505095508060010180546109a690612743565b80601f01602080910402602001604051908101604052809291908181526020018280546109d290612743565b8015610a1f5780601f106109f457610100808354040283529160200191610a1f565b820191906000526020600020905b815481529060010190602001808311610a0257829003601f168201915b5050505050945080600201549350806003018054610a3c90612743565b80601f0160208091040260200160405190810160405280929190818152602001828054610a6890612743565b8015610ab55780601f10610a8a57610100808354040283529160200191610ab5565b820191906000526020600020905b815481529060010190602001808311610a9857829003601f168201915b50505050509250610ac58761076c565b91505091939590929450565b60606001548210610b17576040517f08c379a0000000000000000000000000000000000000000000000000000000008152600401610b0e906122eb565b60405180910390fd5b600060026000848152602001908152602001600020905080600401805480602002602001604051908101604052809291908181526020016000905b82821015610d2557838290600052602060002090600502016040518060a00160405290816000820160009054906101000a900473ffffffffffffffffffffffffffffffffffffffff1673ffffffffffffffffffffffffffffffffffffffff1673ffffffffffffffffffffffffffffffffffffffff168152602001600182018054610bdb90612743565b80601f0160208091040260200160405190810160405280929190818152602001828054610c0790612743565b8015610c545780601f10610c2957610100808354040283529160200191610c54565b820191906000526020600020905b815481529060010190602001808311610c3757829003601f168201915b505050505081526020016002820160009054906101000a900460ff1660ff1660ff16815260200160038201548152602001600482018054610c9490612743565b80601f0160208091040260200160405190810160405280929190818152602001828054610cc090612743565b8015610d0d5780601f10610ce257610100808354040283529160200191610d0d565b820191906000526020600020905b815481529060010190602001808311610cf057829003601f168201915b50505050508152505081526020019060010190610b52565b50505050915050919050565b6000600154905090565b6060806000606060006001548610610d88576040517f08c379a0000000000000000000000000000000000000000000000000000000008152600401610d7f906122eb565b60405180910390fd5b60006002600088815260200190815260200160002090508060000181600101826002015483600301610db98b61076c565b848054610dc590612743565b80601f0160208091040260200160405190810160405280929190818152602001828054610df190612743565b8015610e3e5780601f10610e1357610100808354040283529160200191610e3e565b820191906000526020600020905b815481529060010190602001808311610e2157829003601f168201915b50505050509450838054610e5190612743565b80601f0160208091040260200160405190810160405280929190818152602001828054610e7d90612743565b8015610eca5780601f10610e9f57610100808354040283529160200191610eca565b820191906000526020600020905b815481529060010190602001808311610ead57829003601f168201915b50505050509350818054610edd90612743565b80601f0160208091040260200160405190810160405280929190818152602001828054610f0990612743565b8015610f565780601f10610f2b57610100808354040283529160200191610f56565b820191906000526020600020905b815481529060010190602001808311610f3957829003601f168201915b50505050509150955095509550955095505091939590929450565b60045481565b6001548110610fbb576040517f08c379a0000000000000000000000000000000000000000000000000000000008152600401610fb2906122eb565b60405180910390fd5b600060026000838152602001908152602001600020905060008160050160003373ffffffffffffffffffffffffffffffffffffffff1673ffffffffffffffffffffffffffffffffffffffff1681526020019081526020016000205490506000811161105b576040517f08c379a00000000000000000000000000000000000000000000000000000000081526004016110529061232b565b60405180910390fd5b8160040160018261106c919061265a565b815481106110a3577f4e487b7100000000000000000000000000000000000000000000000000000000600052603260045260246000fd5b9060005260206000209060050201600080820160006101000a81549073ffffffffffffffffffffffffffffffffffffffff02191690556001820160006110e991906119fc565b6002820160006101000a81549060ff0219169055600382016000905560048201600061111591906119fc565b50508160050160003373ffffffffffffffffffffffffffffffffffffffff1673ffffffffffffffffffffffffffffffffffffffff1681526020019081526020016000206000905581600201600081548092919061117190612719565b91905055507fafd8ce1942e785f950387cc5827397a52b9081b330083d3c6defe26851cced948333836040516111a993929190612427565b60405180910390a1505050565b60015484106111fa576040517f08c379a00000000000000000000000000000000000000000000000000000000081526004016111f1906122eb565b60405180910390fd5b60018260ff1610158015611212575060058260ff1611155b611251576040517f08c379a00000000000000000000000000000000000000000000000000000000081526004016112489061234b565b60405180910390fd5b600060026000868152602001908152602001600020905060008160050160003373ffffffffffffffffffffffffffffffffffffffff1673ffffffffffffffffffffffffffffffffffffffff16815260200190815260200160002054146112ec576040517f08c379a00000000000000000000000000000000000000000000000000000000081526004016112e39061238b565b60405180910390fd5b600454600360003373ffffffffffffffffffffffffffffffffffffffff1673ffffffffffffffffffffffffffffffffffffffff168152602001908152602001600020544261133a919061265a565b101561137b576040517f08c379a00000000000000000000000000000000000000000000000000000000081526004016113729061236b565b60405180910390fd5b42600360003373ffffffffffffffffffffffffffffffffffffffff1673ffffffffffffffffffffffffffffffffffffffff16815260200190815260200160002081905550600081600401805490509050816004016040518060a001604052803373ffffffffffffffffffffffffffffffffffffffff1681526020018781526020018660ff16815260200142815260200185815250908060018154018082558091505060019003906000526020600020906005020160009091909190915060008201518160000160006101000a81548173ffffffffffffffffffffffffffffffffffffffff021916908373ffffffffffffffffffffffffffffffffffffffff160217905550602082015181600101908051906020019061149b929190611976565b5060408201518160020160006101000a81548160ff021916908360ff1602179055506060820151816003015560808201518160040190805190602001906114e3929190611976565b505050808260050160003373ffffffffffffffffffffffffffffffffffffffff1673ffffffffffffffffffffffffffffffffffffffff1681526020019081526020016000208190555081600201600081548092919061154190612775565b91905055507f03e58446e0b21cb02a61c80451ad2f46642b2fb33b6987f892ada97d4e3af205863387878760405161157d9594939291906123c6565b60405180910390a1505050505050565b60008054906101000a900473ffffffffffffffffffffffffffffffffffffffff1673ffffffffffffffffffffffffffffffffffffffff163373ffffffffffffffffffffffffffffffffffffffff161461161b576040517f08c379a00000000000000000000000000000000000000000000000000000000081526004016116129061230b565b60405180910390fd5b600154811061165f576040517f08c379a0000000000000000000000000000000000000000000000000000000008152600401611656906122eb565b60405180910390fd5b600060026000838152602001908152602001600020905060005b81600401805490508110156118005760008260040182815481106116c6577f4e487b7100000000000000000000000000000000000000000000000000000000600052603260045260246000fd5b906000526020600020906005020160000160006101000a81548173ffffffffffffffffffffffffffffffffffffffff021916908373ffffffffffffffffffffffffffffffffffffffff16021790555060405180602001604052806000815250826004018281548110611761577f4e487b7100000000000000000000000000000000000000000000000000000000600052603260045260246000fd5b90600052602060002090600502016001019080519060200190611785929190611976565b5060008260040182815481106117c4577f4e487b7100000000000000000000000000000000000000000000000000000000600052603260045260246000fd5b906000526020600020906005020160020160006101000a81548160ff021916908360ff16021790555080806117f890612775565b915050611679565b50600260008381526020019081526020016000206000808201600061182591906119fc565b60018201600061183591906119fc565b600282016000905560038201600061184d91906119fc565b60048201600061185d9190611a3c565b50507fc341cf326465fe622f86c468249e8c0cb03ed23ba376a6a34863a1374ac7d7698260405161188e91906123ab565b60405180910390a15050565b60008054906101000a900473ffffffffffffffffffffffffffffffffffffffff1681565b600080600360003373ffffffffffffffffffffffffffffffffffffffff1673ffffffffffffffffffffffffffffffffffffffff16815260200190815260200160002054905060008142611911919061265a565b905060045481106119275760009250505061193a565b80600454611935919061265a565b925050505b90565b6040518060c00160405280600081526020016060815260200160608152602001600060ff16815260200160008152602001606081525090565b82805461198290612743565b90600052602060002090601f0160209004810192826119a457600085556119eb565b82601f106119bd57805160ff19168380011785556119eb565b828001600101855582156119eb579182015b828111156119ea5782518255916020019190600101906119cf565b5b5090506119f89190611a60565b5090565b508054611a0890612743565b6000825580601f10611a1a5750611a39565b601f016020900490600052602060002090810190611a389190611a60565b5b50565b5080546000825560050290600052602060002090810190611a5d9190611a7d565b50565b5b80821115611a79576000816000905550600101611a61565b5090565b5b80821115611af357600080820160006101000a81549073ffffffffffffffffffffffffffffffffffffffff0219169055600182016000611abe91906119fc565b6002820160006101000a81549060ff02191690556003820160009055600482016000611aea91906119fc565b50600501611a7e565b5090565b6000611b0a611b0584612504565b6124d3565b905082815260208101848484011115611b2257600080fd5b611b2d8482856126d7565b509392505050565b600081359050611b448161288b565b92915050565b600082601f830112611b5b57600080fd5b8135611b6b848260208601611af7565b91505092915050565b600081359050611b83816128a2565b92915050565b600081359050611b98816128b9565b92915050565b600060208284031215611bb057600080fd5b6000611bbe84828501611b35565b91505092915050565b600080600060608486031215611bdc57600080fd5b600084013567ffffffffffffffff811115611bf657600080fd5b611c0286828701611b4a565b935050602084013567ffffffffffffffff811115611c1f57600080fd5b611c2b86828701611b4a565b925050604084013567ffffffffffffffff811115611c4857600080fd5b611c5486828701611b4a565b9150509250925092565b600060208284031215611c7057600080fd5b6000611c7e84828501611b74565b91505092915050565b60008060008060808587031215611c9d57600080fd5b6000611cab87828801611b74565b945050602085013567ffffffffffffffff811115611cc857600080fd5b611cd487828801611b4a565b9350506040611ce587828801611b89565b925050606085013567ffffffffffffffff811115611d0257600080fd5b611d0e87828801611b4a565b91505092959194509250565b6000611d2683836120d4565b905092915050565b6000611d3a838361216b565b905092915050565b611d4b8161268e565b82525050565b611d5a8161268e565b82525050565b6000611d6b82612554565b611d75818561258f565b935083602082028501611d8785612534565b8060005b85811015611dc35784840389528151611da48582611d1a565b9450611daf83612575565b925060208a01995050600181019050611d8b565b50829750879550505050505092915050565b6000611de08261255f565b611dea81856125a0565b935083602082028501611dfc85612544565b8060005b85811015611e385784840389528151611e198582611d2e565b9450611e2483612582565b925060208a01995050600181019050611e00565b50829750879550505050505092915050565b6000611e558261256a565b611e5f81856125b1565b9350611e6f8185602086016126e6565b611e788161287a565b840191505092915050565b6000611e8e8261256a565b611e9881856125c2565b9350611ea88185602086016126e6565b611eb18161287a565b840191505092915050565b6000611ec96016836125c2565b91507f50726f6475637420646f6573206e6f74206578697374000000000000000000006000830152602082019050919050565b6000611f096025836125c2565b91507f4f6e6c79207468652061646d696e2063616e2063616c6c20746869732066756e60008301527f6374696f6e0000000000000000000000000000000000000000000000000000006020830152604082019050919050565b6000611f6f6023836125c2565b91507f596f752068617665206e6f2072657669657720666f7220746869732070726f6460008301527f75637400000000000000000000000000000000000000000000000000000000006020830152604082019050919050565b6000611fd5601e836125c2565b91507f526174696e67206d757374206265206265747765656e203120616e64203500006000830152602082019050919050565b60006120156023836125c2565b91507f596f752063616e2774207375626d697420616e6f74686572207265766965772060008301527f79657400000000000000000000000000000000000000000000000000000000006020830152604082019050919050565b600061207b6026836125c2565b91507f596f75206861766520616c72656164792072657669657765642074686973207060008301527f726f6475637400000000000000000000000000000000000000000000000000006020830152604082019050919050565b600060c0830160008301516120ec60008601826121e8565b50602083015184820360208601526121048282611e4a565b9150506040830151848203604086015261211e8282611e4a565b91505060608301516121336060860182612206565b50608083015161214660808601826121e8565b5060a083015184820360a086015261215e8282611e4a565b9150508091505092915050565b600060a0830160008301516121836000860182611d42565b506020830151848203602086015261219b8282611e4a565b91505060408301516121b06040860182612206565b5060608301516121c360608601826121e8565b50608083015184820360808601526121db8282611e4a565b9150508091505092915050565b6121f1816126c0565b82525050565b612200816126c0565b82525050565b61220f816126ca565b82525050565b61221e816126ca565b82525050565b60006020820190506122396000830184611d51565b92915050565b600060208201905081810360008301526122598184611d60565b905092915050565b6000602082019050818103600083015261227b8184611dd5565b905092915050565b600060a082019050818103600083015261229d8188611e83565b905081810360208301526122b18187611e83565b90506122c060408301866121f7565b81810360608301526122d28185611e83565b90506122e16080830184612215565b9695505050505050565b6000602082019050818103600083015261230481611ebc565b9050919050565b6000602082019050818103600083015261232481611efc565b9050919050565b6000602082019050818103600083015261234481611f62565b9050919050565b6000602082019050818103600083015261236481611fc8565b9050919050565b6000602082019050818103600083015261238481612008565b9050919050565b600060208201905081810360008301526123a48161206e565b9050919050565b60006020820190506123c060008301846121f7565b92915050565b600060a0820190506123db60008301886121f7565b6123e86020830187611d51565b81810360408301526123fa8186611e83565b90506124096060830185612215565b818103608083015261241b8184611e83565b90509695505050505050565b600060608201905061243c60008301866121f7565b6124496020830185611d51565b61245660408301846121f7565b949350505050565b600060808201905061247360008301876121f7565b81810360208301526124858186611e83565b905081810360408301526124998185611e83565b905081810360608301526124ad8184611e83565b905095945050505050565b60006020820190506124cd6000830184612215565b92915050565b6000604051905081810181811067ffffffffffffffff821117156124fa576124f961284b565b5b8060405250919050565b600067ffffffffffffffff82111561251f5761251e61284b565b5b601f19601f8301169050602081019050919050565b6000819050602082019050919050565b6000819050602082019050919050565b600081519050919050565b600081519050919050565b600081519050919050565b6000602082019050919050565b6000602082019050919050565b600082825260208201905092915050565b600082825260208201905092915050565b600082825260208201905092915050565b600082825260208201905092915050565b60006125de826126c0565b91506125e9836126c0565b9250827fffffffffffffffffffffffffffffffffffffffffffffffffffffffffffffffff0382111561261e5761261d6127be565b5b828201905092915050565b6000612634826126c0565b915061263f836126c0565b92508261264f5761264e6127ed565b5b828204905092915050565b6000612665826126c0565b9150612670836126c0565b925082821015612683576126826127be565b5b828203905092915050565b6000612699826126a0565b9050919050565b600073ffffffffffffffffffffffffffffffffffffffff82169050919050565b6000819050919050565b600060ff82169050919050565b82818337600083830152505050565b60005b838110156127045780820151818401526020810190506126e9565b83811115612713576000848401525b50505050565b6000612724826126c0565b91506000821415612738576127376127be565b5b600182039050919050565b6000600282049050600182168061275b57607f821691505b6020821081141561276f5761276e61281c565b5b50919050565b6000612780826126c0565b91507fffffffffffffffffffffffffffffffffffffffffffffffffffffffffffffffff8214156127b3576127b26127be565b5b600182019050919050565b7f4e487b7100000000000000000000000000000000000000000000000000000000600052601160045260246000fd5b7f4e487b7100000000000000000000000000000000000000000000000000000000600052601260045260246000fd5b7f4e487b7100000000000000000000000000000000000000000000000000000000600052602260045260246000fd5b7f4e487b7100000000000000000000000000000000000000000000000000000000600052604160045260246000fd5b6000601f19601f8301169050919050565b6128948161268e565b811461289f57600080fd5b50565b6128ab816126c0565b81146128b657600080fd5b50565b6128c2816126ca565b81146128cd57600080fd5b5056fea2646970667358221220ff69b6ff5f87ba3e0195573927c4302e1db1af8ed167e82d2845e46e90ccedba64736f6c63430008000033",
  "linkReferences": {},
  "deployedLinkReferences": {}
}