{
  "_format": "hh-sol-artifact-1",
  "contractName": "ProductRatingSystem",
  "sourceName": "contracts/ProductRatingSystem.sol",
  "abi": [
    {
      "inputs": [],
      "stateMutability": "nonpayable",
      "type": "constructor"
    },
    {
      "anonymous": false,
      "inputs": [
        {
          "indexed": false,
          "internalType": "uint256",
          "name": "productId",
          "type": "uint256"
        },
        {
          "indexed": false,
          "internalType": "string",
          "name": "name",
          "type": "string"
        },
        {
          "indexed": false,
          "internalType": "string",
          "name": "description",
          "type": "string"
        },
        {
          "indexed": false,
          "internalType": "string",
          "name": "productUrl",
          "type": "string"
        }
      ],
      "name": "ProductAdded",
      "type": "event"
    },
    {
      "anonymous": false,
      "inputs": [
        {
          "indexed": false,
          "internalType": "uint256",
          "name": "productId",
          "type": "uint256"
        }
      ],
      "name": "ProductDeleted",
      "type": "event"
    },
    {
      "anonymous": false,
      "inputs": [
        {
          "indexed": false,
          "internalType": "uint256",
          "name": "productId",
          "type": "uint256"
        },
        {
          "indexed": false,
          "internalType": "address",
          "name": "reviewer",
          "type": "address"
        },
        {
          "indexed": false,
          "internalType": "string",
          "name": "ipfsContentHash",
          "type": "string"
        },
        {
          "indexed": false,
          "internalType": "uint8",
          "name": "rating",
          "type": "uint8"
        }
      ],
      "name": "ReviewAdded",
      "type": "event"
    },
    {
      "anonymous": false,
      "inputs": [
        {
          "indexed": false,
          "internalType": "uint256",
          "name": "productId",
          "type": "uint256"
        },
        {
          "indexed": false,
          "internalType": "address",
          "name": "reviewer",
          "type": "address"
        },
        {
          "indexed": false,
          "internalType": "uint256",
          "name": "reviewId",
          "type": "uint256"
        }
      ],
      "name": "ReviewDeleted",
      "type": "event"
    },
    {
      "inputs": [
        {
          "internalType": "string",
          "name": "name",
          "type": "string"
        },
        {
          "internalType": "string",
          "name": "description",
          "type": "string"
        },
        {
          "internalType": "string",
          "name": "productUrl",
          "type": "string"
        }
      ],
      "name": "addProduct",
      "outputs": [],
      "stateMutability": "nonpayable",
      "type": "function"
    },
    {
      "inputs": [
        {
          "internalType": "uint256",
          "name": "productId",
          "type": "uint256"
        },
        {
          "internalType": "string",
          "name": "ipfsContentHash",
          "type": "string"
        },
        {
          "internalType": "uint8",
          "name": "rating",
          "type": "uint8"
        }
      ],
      "name": "addReview",
      "outputs": [],
      "stateMutability": "nonpayable",
      "type": "function"
    },
    {
      "inputs": [],
      "name": "admin",
      "outputs": [
        {
          "internalType": "address",
          "name": "",
          "type": "address"
        }
      ],
      "stateMutability": "view",
      "type": "function"
    },
    {
      "inputs": [
        {
          "internalType": "uint256",
          "name": "productId",
          "type": "uint256"
        }
      ],
      "name": "deleteProduct",
      "outputs": [],
      "stateMutability": "nonpayable",
      "type": "function"
    },
    {
      "inputs": [
        {
          "internalType": "uint256",
          "name": "productId",
          "type": "uint256"
        }
      ],
      "name": "deleteReview",
      "outputs": [],
      "stateMutability": "nonpayable",
      "type": "function"
    },
    {
      "inputs": [],
      "name": "getAllProducts",
      "outputs": [
        {
          "components": [
            {
              "internalType": "uint256",
              "name": "productId",
              "type": "uint256"
            },
            {
              "internalType": "string",
              "name": "name",
              "type": "string"
            },
            {
              "internalType": "string",
              "name": "description",
              "type": "string"
            },
            {
              "internalType": "uint8",
              "name": "rating",
              "type": "uint8"
            },
            {
              "internalType": "uint256",
              "name": "totalReviews",
              "type": "uint256"
            },
            {
              "internalType": "string",
              "name": "productUrl",
              "type": "string"
            }
          ],
          "internalType": "struct ProductRatingSystem.ProductDetails[]",
          "name": "",
          "type": "tuple[]"
        }
      ],
      "stateMutability": "view",
      "type": "function"
    },
    {
      "inputs": [
        {
          "internalType": "uint256",
          "name": "productId",
          "type": "uint256"
        }
      ],
      "name": "getAverageRating",
      "outputs": [
        {
          "internalType": "uint8",
          "name": "",
          "type": "uint8"
        }
      ],
      "stateMutability": "view",
      "type": "function"
    },
    {
      "inputs": [
        {
          "internalType": "uint256",
          "name": "productId",
          "type": "uint256"
        }
      ],
      "name": "getProductById",
      "outputs": [
        {
          "internalType": "string",
          "name": "name",
          "type": "string"
        },
        {
          "internalType": "string",
          "name": "description",
          "type": "string"
        },
        {
          "internalType": "uint256",
          "name": "totalReviews",
          "type": "uint256"
        },
        {
          "internalType": "string",
          "name": "productUrl",
          "type": "string"
        },
        {
          "internalType": "uint8",
          "name": "averageRating",
          "type": "uint8"
        }
      ],
      "stateMutability": "view",
      "type": "function"
    },
    {
      "inputs": [
        {
          "internalType": "uint256",
          "name": "productId",
          "type": "uint256"
        }
      ],
      "name": "getProductDetails",
      "outputs": [
        {
          "internalType": "string",
          "name": "",
          "type": "string"
        },
        {
          "internalType": "string",
          "name": "",
          "type": "string"
        },
        {
          "internalType": "uint256",
          "name": "",
          "type": "uint256"
        },
        {
          "internalType": "string",
          "name": "",
          "type": "string"
        },
        {
          "internalType": "uint8",
          "name": "",
          "type": "uint8"
        }
      ],
      "stateMutability": "view",
      "type": "function"
    },
    {
      "inputs": [
        {
          "internalType": "uint256",
          "name": "productId",
          "type": "uint256"
        }
      ],
      "name": "getProductReviews",
      "outputs": [
        {
          "components": [
            {
              "internalType": "address",
              "name": "reviewer",
              "type": "address"
            },
            {
              "internalType": "string",
              "name": "ipfsContentHash",
              "type": "string"
            },
            {
              "internalType": "uint8",
              "name": "rating",
              "type": "uint8"
            },
            {
              "internalType": "uint256",
              "name": "timestamp",
              "type": "uint256"
            }
          ],
          "internalType": "struct ProductRatingSystem.Review[]",
          "name": "",
          "type": "tuple[]"
        }
      ],
      "stateMutability": "view",
      "type": "function"
    },
    {
      "inputs": [],
      "name": "getProductsCount",
      "outputs": [
        {
          "internalType": "uint256",
          "name": "",
          "type": "uint256"
        }
      ],
      "stateMutability": "view",
      "type": "function"
    },
    {
      "inputs": [],
      "name": "getReviewCoolDownTime",
      "outputs": [
        {
          "internalType": "uint256",
          "name": "",
          "type": "uint256"
        }
      ],
      "stateMutability": "view",
      "type": "function"
    },
    {
      "inputs": [
        {
          "internalType": "address",
          "name": "",
          "type": "address"
        }
      ],
      "name": "lastReviewTimestamp",
      "outputs": [
        {
          "internalType": "uint256",
          "name": "",
          "type": "uint256"
        }
      ],
      "stateMutability": "view",
      "type": "function"
    },
    {
      "inputs": [],
      "name": "reviewCooldownTime",
      "outputs": [
        {
          "internalType": "uint256",
          "name": "",
          "type": "uint256"
        }
      ],
      "stateMutability": "view",
      "type": "function"
    }
  ],
  "bytecode": "0x6080604052600a60045534801561001557600080fd5b50336000806101000a81548173ffffffffffffffffffffffffffffffffffffffff021916908373ffffffffffffffffffffffffffffffffffffffff1602179055506127b9806100656000396000f3fe608060405234801561001057600080fd5b50600436106100ea5760003560e01c80635786fd401161008c5780636f759e71116100665780636f759e7114610279578063d71e489014610297578063ed90c7b7146102b3578063f851a440146102cf576100ea565b80635786fd401461020b57806366d8ea4d146102295780636813b53b14610245576100ea565b806317b7e03e116100c857806317b7e03e146101475780632541f14d146101775780633f70c2b4146101a757806346a4237b146101db576100ea565b806302ee3a52146100ef5780630e34b00e1461010d5780630fdf36b214610129575b600080fd5b6100f76102ed565b6040516101049190612107565b60405180910390f35b61012760048036038101906101229190611ad5565b610667565b005b6101316107c7565b60405161013e9190612273565b60405180910390f35b610161600480360381019061015c9190611b6c565b6107d1565b60405161016e919061236b565b60405180910390f35b610191600480360381019061018c9190611aac565b6108f1565b60405161019e9190612273565b60405180910390f35b6101c160048036038101906101bc9190611b6c565b610909565b6040516101d295949392919061214b565b60405180910390f35b6101f560048036038101906101f09190611b6c565b610b36565b6040516102029190612129565b60405180910390f35b610213610d04565b6040516102209190612273565b60405180910390f35b610243600480360381019061023e9190611b95565b610d0e565b005b61025f600480360381019061025a9190611b6c565b6110bf565b60405161027095949392919061214b565b60405180910390f35b6102816112f5565b60405161028e9190612273565b60405180910390f35b6102b160048036038101906102ac9190611b6c565b6112fb565b005b6102cd60048036038101906102c89190611b6c565b61152a565b005b6102d7611837565b6040516102e491906120ec565b60405180910390f35b60606000600154141561037c57600067ffffffffffffffff81111561033b577f4e487b7100000000000000000000000000000000000000000000000000000000600052604160045260246000fd5b60405190808252806020026020018201604052801561037457816020015b61036161185b565b8152602001906001900390816103595790505b509050610664565b600060015467ffffffffffffffff8111156103c0577f4e487b7100000000000000000000000000000000000000000000000000000000600052604160045260246000fd5b6040519080825280602002602001820160405280156103f957816020015b6103e661185b565b8152602001906001900390816103de5790505b50905060005b60015481101561065e576000600260008381526020019081526020016000209050600061042b836107d1565b90506040518060c0016040528084815260200183600001805461044d906125f6565b80601f0160208091040260200160405190810160405280929190818152602001828054610479906125f6565b80156104c65780601f1061049b576101008083540402835291602001916104c6565b820191906000526020600020905b8154815290600101906020018083116104a957829003601f168201915b505050505081526020018360010180546104df906125f6565b80601f016020809104026020016040519081016040528092919081815260200182805461050b906125f6565b80156105585780601f1061052d57610100808354040283529160200191610558565b820191906000526020600020905b81548152906001019060200180831161053b57829003601f168201915b505050505081526020018260ff16815260200183600201548152602001836003018054610584906125f6565b80601f01602080910402602001604051908101604052809291908181526020018280546105b0906125f6565b80156105fd5780601f106105d2576101008083540402835291602001916105fd565b820191906000526020600020905b8154815290600101906020018083116105e057829003601f168201915b505050505081525084848151811061063e577f4e487b7100000000000000000000000000000000000000000000000000000000600052603260045260246000fd5b60200260200101819052505050808061065690612628565b9150506103ff565b50809150505b90565b60008054906101000a900473ffffffffffffffffffffffffffffffffffffffff1673ffffffffffffffffffffffffffffffffffffffff163373ffffffffffffffffffffffffffffffffffffffff16146106f5576040517f08c379a00000000000000000000000000000000000000000000000000000000081526004016106ec906121d3565b60405180910390fd5b6000600260006001600081548092919061070e90612628565b91905055815260200190815260200160002090508381600001908051906020019061073a929190611894565b5082816001019080519060200190610753929190611894565b508181600301908051906020019061076c929190611894565b50600081600201819055507f2ad97e35e5231a127d0d7b6cd0aa552ec47d312eff0ef74961fb06c5ae926884600180546107a6919061250d565b8585856040516107b99493929190612311565b60405180910390a150505050565b6000600454905090565b60006001548210610817576040517f08c379a000000000000000000000000000000000000000000000000000000000815260040161080e906121b3565b60405180910390fd5b60006002600084815260200190815260200160002090506000816002015414156108455760009150506108ec565b6000805b82600401805490508110156108d657826004018181548110610894577f4e487b7100000000000000000000000000000000000000000000000000000000600052603260045260246000fd5b906000526020600020906004020160020160009054906101000a900460ff1660ff16826108c19190612486565b915080806108ce90612628565b915050610849565b508160020154816108e791906124dc565b925050505b919050565b60036020528060005260406000206000915090505481565b6060806000606060006001548610610956576040517f08c379a000000000000000000000000000000000000000000000000000000000815260040161094d906121b3565b60405180910390fd5b600060026000888152602001908152602001600020905080600001805461097c906125f6565b80601f01602080910402602001604051908101604052809291908181526020018280546109a8906125f6565b80156109f55780601f106109ca576101008083540402835291602001916109f5565b820191906000526020600020905b8154815290600101906020018083116109d857829003601f168201915b50505050509550806001018054610a0b906125f6565b80601f0160208091040260200160405190810160405280929190818152602001828054610a37906125f6565b8015610a845780601f10610a5957610100808354040283529160200191610a84565b820191906000526020600020905b815481529060010190602001808311610a6757829003601f168201915b5050505050945080600201549350806003018054610aa1906125f6565b80601f0160208091040260200160405190810160405280929190818152602001828054610acd906125f6565b8015610b1a5780601f10610aef57610100808354040283529160200191610b1a565b820191906000526020600020905b815481529060010190602001808311610afd57829003601f168201915b50505050509250610b2a876107d1565b91505091939590929450565b60606001548210610b7c576040517f08c379a0000000000000000000000000000000000000000000000000000000008152600401610b73906121b3565b60405180910390fd5b600060026000848152602001908152602001600020905080600401805480602002602001604051908101604052809291908181526020016000905b82821015610cf857838290600052602060002090600402016040518060800160405290816000820160009054906101000a900473ffffffffffffffffffffffffffffffffffffffff1673ffffffffffffffffffffffffffffffffffffffff1673ffffffffffffffffffffffffffffffffffffffff168152602001600182018054610c40906125f6565b80601f0160208091040260200160405190810160405280929190818152602001828054610c6c906125f6565b8015610cb95780601f10610c8e57610100808354040283529160200191610cb9565b820191906000526020600020905b815481529060010190602001808311610c9c57829003601f168201915b505050505081526020016002820160009054906101000a900460ff1660ff1660ff16815260200160038201548152505081526020019060010190610bb7565b50505050915050919050565b6000600154905090565b6001548310610d52576040517f08c379a0000000000000000000000000000000000000000000000000000000008152600401610d49906121b3565b60405180910390fd5b60018160ff1610158015610d6a575060058160ff1611155b610da9576040517f08c379a0000000000000000000000000000000000000000000000000000000008152600401610da090612213565b60405180910390fd5b600060026000858152602001908152602001600020905060008160050160003373ffffffffffffffffffffffffffffffffffffffff1673ffffffffffffffffffffffffffffffffffffffff1681526020019081526020016000205414610e44576040517f08c379a0000000000000000000000000000000000000000000000000000000008152600401610e3b90612253565b60405180910390fd5b600454600360003373ffffffffffffffffffffffffffffffffffffffff1673ffffffffffffffffffffffffffffffffffffffff1681526020019081526020016000205442610e92919061250d565b1015610ed3576040517f08c379a0000000000000000000000000000000000000000000000000000000008152600401610eca90612233565b60405180910390fd5b42600360003373ffffffffffffffffffffffffffffffffffffffff1673ffffffffffffffffffffffffffffffffffffffff168152602001908152602001600020819055506000816004018054905090508160040160405180608001604052803373ffffffffffffffffffffffffffffffffffffffff1681526020018681526020018560ff16815260200142815250908060018154018082558091505060019003906000526020600020906004020160009091909190915060008201518160000160006101000a81548173ffffffffffffffffffffffffffffffffffffffff021916908373ffffffffffffffffffffffffffffffffffffffff1602179055506020820151816001019080519060200190610fed929190611894565b5060408201518160020160006101000a81548160ff021916908360ff160217905550606082015181600301555050808260050160003373ffffffffffffffffffffffffffffffffffffffff1673ffffffffffffffffffffffffffffffffffffffff1681526020019081526020016000208190555081600201600081548092919061107690612628565b91905055507f9d30e2860da6b2b3097b8d53b1e8249f3aca41ee19cdfc8607a0e8942c54696f853386866040516110b0949392919061228e565b60405180910390a15050505050565b606080600060606000600154861061110c576040517f08c379a0000000000000000000000000000000000000000000000000000000008152600401611103906121b3565b60405180910390fd5b6000600260008881526020019081526020016000209050806000018160010182600201548360030161113d8b6107d1565b848054611149906125f6565b80601f0160208091040260200160405190810160405280929190818152602001828054611175906125f6565b80156111c25780601f10611197576101008083540402835291602001916111c2565b820191906000526020600020905b8154815290600101906020018083116111a557829003601f168201915b505050505094508380546111d5906125f6565b80601f0160208091040260200160405190810160405280929190818152602001828054611201906125f6565b801561124e5780601f106112235761010080835404028352916020019161124e565b820191906000526020600020905b81548152906001019060200180831161123157829003601f168201915b50505050509350818054611261906125f6565b80601f016020809104026020016040519081016040528092919081815260200182805461128d906125f6565b80156112da5780601f106112af576101008083540402835291602001916112da565b820191906000526020600020905b8154815290600101906020018083116112bd57829003601f168201915b50505050509150955095509550955095505091939590929450565b60045481565b600154811061133f576040517f08c379a0000000000000000000000000000000000000000000000000000000008152600401611336906121b3565b60405180910390fd5b600060026000838152602001908152602001600020905060008160050160003373ffffffffffffffffffffffffffffffffffffffff1673ffffffffffffffffffffffffffffffffffffffff168152602001908152602001600020549050600081116113df576040517f08c379a00000000000000000000000000000000000000000000000000000000081526004016113d6906121f3565b60405180910390fd5b816004016001826113f0919061250d565b81548110611427577f4e487b7100000000000000000000000000000000000000000000000000000000600052603260045260246000fd5b9060005260206000209060040201600080820160006101000a81549073ffffffffffffffffffffffffffffffffffffffff021916905560018201600061146d919061191a565b6002820160006101000a81549060ff0219169055600382016000905550508160050160003373ffffffffffffffffffffffffffffffffffffffff1673ffffffffffffffffffffffffffffffffffffffff168152602001908152602001600020600090558160020160008154809291906114e5906125cc565b91905055507fafd8ce1942e785f950387cc5827397a52b9081b330083d3c6defe26851cced9483338360405161151d939291906122da565b60405180910390a1505050565b60008054906101000a900473ffffffffffffffffffffffffffffffffffffffff1673ffffffffffffffffffffffffffffffffffffffff163373ffffffffffffffffffffffffffffffffffffffff16146115b8576040517f08c379a00000000000000000000000000000000000000000000000000000000081526004016115af906121d3565b60405180910390fd5b60015481106115fc576040517f08c379a00000000000000000000000000000000000000000000000000000000081526004016115f3906121b3565b60405180910390fd5b600060026000838152602001908152602001600020905060005b816004018054905081101561179d576000826004018281548110611663577f4e487b7100000000000000000000000000000000000000000000000000000000600052603260045260246000fd5b906000526020600020906004020160000160006101000a81548173ffffffffffffffffffffffffffffffffffffffff021916908373ffffffffffffffffffffffffffffffffffffffff160217905550604051806020016040528060008152508260040182815481106116fe577f4e487b7100000000000000000000000000000000000000000000000000000000600052603260045260246000fd5b90600052602060002090600402016001019080519060200190611722929190611894565b506000826004018281548110611761577f4e487b7100000000000000000000000000000000000000000000000000000000600052603260045260246000fd5b906000526020600020906004020160020160006101000a81548160ff021916908360ff160217905550808061179590612628565b915050611616565b5060026000838152602001908152602001600020600080820160006117c2919061191a565b6001820160006117d2919061191a565b60028201600090556003820160006117ea919061191a565b6004820160006117fa919061195a565b50507fc341cf326465fe622f86c468249e8c0cb03ed23ba376a6a34863a1374ac7d7698260405161182b9190612273565b60405180910390a15050565b60008054906101000a900473ffffffffffffffffffffffffffffffffffffffff1681565b6040518060c00160405280600081526020016060815260200160608152602001600060ff16815260200160008152602001606081525090565b8280546118a0906125f6565b90600052602060002090601f0160209004810192826118c25760008555611909565b82601f106118db57805160ff1916838001178555611909565b82800160010185558215611909579182015b828111156119085782518255916020019190600101906118ed565b5b509050611916919061197e565b5090565b508054611926906125f6565b6000825580601f106119385750611957565b601f016020900490600052602060002090810190611956919061197e565b5b50565b508054600082556004029060005260206000209081019061197b919061199b565b50565b5b8082111561199757600081600090555060010161197f565b5090565b5b80821115611a0157600080820160006101000a81549073ffffffffffffffffffffffffffffffffffffffff02191690556001820160006119dc919061191a565b6002820160006101000a81549060ff021916905560038201600090555060040161199c565b5090565b6000611a18611a13846123b7565b612386565b905082815260208101848484011115611a3057600080fd5b611a3b84828561258a565b509392505050565b600081359050611a528161273e565b92915050565b600082601f830112611a6957600080fd5b8135611a79848260208601611a05565b91505092915050565b600081359050611a9181612755565b92915050565b600081359050611aa68161276c565b92915050565b600060208284031215611abe57600080fd5b6000611acc84828501611a43565b91505092915050565b600080600060608486031215611aea57600080fd5b600084013567ffffffffffffffff811115611b0457600080fd5b611b1086828701611a58565b935050602084013567ffffffffffffffff811115611b2d57600080fd5b611b3986828701611a58565b925050604084013567ffffffffffffffff811115611b5657600080fd5b611b6286828701611a58565b9150509250925092565b600060208284031215611b7e57600080fd5b6000611b8c84828501611a82565b91505092915050565b600080600060608486031215611baa57600080fd5b6000611bb886828701611a82565b935050602084013567ffffffffffffffff811115611bd557600080fd5b611be186828701611a58565b9250506040611bf286828701611a97565b9150509250925092565b6000611c088383611fb6565b905092915050565b6000611c1c838361204d565b905092915050565b611c2d81612541565b82525050565b611c3c81612541565b82525050565b6000611c4d82612407565b611c578185612442565b935083602082028501611c69856123e7565b8060005b85811015611ca55784840389528151611c868582611bfc565b9450611c9183612428565b925060208a01995050600181019050611c6d565b50829750879550505050505092915050565b6000611cc282612412565b611ccc8185612453565b935083602082028501611cde856123f7565b8060005b85811015611d1a5784840389528151611cfb8582611c10565b9450611d0683612435565b925060208a01995050600181019050611ce2565b50829750879550505050505092915050565b6000611d378261241d565b611d418185612464565b9350611d51818560208601612599565b611d5a8161272d565b840191505092915050565b6000611d708261241d565b611d7a8185612475565b9350611d8a818560208601612599565b611d938161272d565b840191505092915050565b6000611dab601683612475565b91507f50726f6475637420646f6573206e6f74206578697374000000000000000000006000830152602082019050919050565b6000611deb602583612475565b91507f4f6e6c79207468652061646d696e2063616e2063616c6c20746869732066756e60008301527f6374696f6e0000000000000000000000000000000000000000000000000000006020830152604082019050919050565b6000611e51602383612475565b91507f596f752068617665206e6f2072657669657720666f7220746869732070726f6460008301527f75637400000000000000000000000000000000000000000000000000000000006020830152604082019050919050565b6000611eb7601e83612475565b91507f526174696e67206d757374206265206265747765656e203120616e64203500006000830152602082019050919050565b6000611ef7602383612475565b91507f596f752063616e2774207375626d697420616e6f74686572207265766965772060008301527f79657400000000000000000000000000000000000000000000000000000000006020830152604082019050919050565b6000611f5d602683612475565b91507f596f75206861766520616c72656164792072657669657765642074686973207060008301527f726f6475637400000000000000000000000000000000000000000000000000006020830152604082019050919050565b600060c083016000830151611fce60008601826120b0565b5060208301518482036020860152611fe68282611d2c565b915050604083015184820360408601526120008282611d2c565b915050606083015161201560608601826120ce565b50608083015161202860808601826120b0565b5060a083015184820360a08601526120408282611d2c565b9150508091505092915050565b60006080830160008301516120656000860182611c24565b506020830151848203602086015261207d8282611d2c565b915050604083015161209260408601826120ce565b5060608301516120a560608601826120b0565b508091505092915050565b6120b981612573565b82525050565b6120c881612573565b82525050565b6120d78161257d565b82525050565b6120e68161257d565b82525050565b60006020820190506121016000830184611c33565b92915050565b600060208201905081810360008301526121218184611c42565b905092915050565b600060208201905081810360008301526121438184611cb7565b905092915050565b600060a08201905081810360008301526121658188611d65565b905081810360208301526121798187611d65565b905061218860408301866120bf565b818103606083015261219a8185611d65565b90506121a960808301846120dd565b9695505050505050565b600060208201905081810360008301526121cc81611d9e565b9050919050565b600060208201905081810360008301526121ec81611dde565b9050919050565b6000602082019050818103600083015261220c81611e44565b9050919050565b6000602082019050818103600083015261222c81611eaa565b9050919050565b6000602082019050818103600083015261224c81611eea565b9050919050565b6000602082019050818103600083015261226c81611f50565b9050919050565b600060208201905061228860008301846120bf565b92915050565b60006080820190506122a360008301876120bf565b6122b06020830186611c33565b81810360408301526122c28185611d65565b90506122d160608301846120dd565b95945050505050565b60006060820190506122ef60008301866120bf565b6122fc6020830185611c33565b61230960408301846120bf565b949350505050565b600060808201905061232660008301876120bf565b81810360208301526123388186611d65565b9050818103604083015261234c8185611d65565b905081810360608301526123608184611d65565b905095945050505050565b600060208201905061238060008301846120dd565b92915050565b6000604051905081810181811067ffffffffffffffff821117156123ad576123ac6126fe565b5b8060405250919050565b600067ffffffffffffffff8211156123d2576123d16126fe565b5b601f19601f8301169050602081019050919050565b6000819050602082019050919050565b6000819050602082019050919050565b600081519050919050565b600081519050919050565b600081519050919050565b6000602082019050919050565b6000602082019050919050565b600082825260208201905092915050565b600082825260208201905092915050565b600082825260208201905092915050565b600082825260208201905092915050565b600061249182612573565b915061249c83612573565b9250827fffffffffffffffffffffffffffffffffffffffffffffffffffffffffffffffff038211156124d1576124d0612671565b5b828201905092915050565b60006124e782612573565b91506124f283612573565b925082612502576125016126a0565b5b828204905092915050565b600061251882612573565b915061252383612573565b92508282101561253657612535612671565b5b828203905092915050565b600061254c82612553565b9050919050565b600073ffffffffffffffffffffffffffffffffffffffff82169050919050565b6000819050919050565b600060ff82169050919050565b82818337600083830152505050565b60005b838110156125b757808201518184015260208101905061259c565b838111156125c6576000848401525b50505050565b60006125d782612573565b915060008214156125eb576125ea612671565b5b600182039050919050565b6000600282049050600182168061260e57607f821691505b60208210811415612622576126216126cf565b5b50919050565b600061263382612573565b91507fffffffffffffffffffffffffffffffffffffffffffffffffffffffffffffffff82141561266657612665612671565b5b600182019050919050565b7f4e487b7100000000000000000000000000000000000000000000000000000000600052601160045260246000fd5b7f4e487b7100000000000000000000000000000000000000000000000000000000600052601260045260246000fd5b7f4e487b7100000000000000000000000000000000000000000000000000000000600052602260045260246000fd5b7f4e487b7100000000000000000000000000000000000000000000000000000000600052604160045260246000fd5b6000601f19601f8301169050919050565b61274781612541565b811461275257600080fd5b50565b61275e81612573565b811461276957600080fd5b50565b6127758161257d565b811461278057600080fd5b5056fea264697066735822122069513ad7334c1ce47991855bd4b097f42efa40f5bb7fc8233778b2868eeb6fe264736f6c63430008000033",
  "linkReferences": {},
  "deployedLinkReferences": {}
}